:020000040800F2
:100000000000022099C0000895C0000895C00008B3
:1000100095C0000895C0000895C0000800000000C9
:1000200000000000000000000000000095C0000873
:1000300095C000080000000095C0000895C00008A9
:1000400095C0000895C0000895C0000895C000083C
:1000500095C0000895C0000895C0000895C000082C
:1000600095C0000895C0000895C0000895C000081C
:1000700095C0000895C0000895C0000895C000080C
:1000800095C0000895C0000895C0000895C00008FC
:1000900095C0000895C0000895C0000895C00008EC
:1000A00095C0000895C0000895C0000895C00008DC
:1000B000A15B000895C0000895C0000895C0000825
:1000C00095C0000895C0000895C0000895C00008BC
:1000D00095C000082D93000895C0000895C0000841
:1000E00095C0000895C0000895C0000895C000089C
:1000F00095C0000895C0000895C0000895C000088C
:1001000095C0000895C0000895C0000895C000087B
:1001100095C000080196000895C0000895C0000829
:1001200095C0000895C0000895C0000895C000085B
:1001300095C0000895C0000895C0000895C000084B
:1001400095C0000895C0000895C0000895C000083B
:1001500095C0000895C0000895C0000895C000082B
:1001600095C0000895C0000895C0000895C000081B
:1001700095C0000895C0000895C0000895C000080B
:1001800095C0000895C00008044B05481B1A062BB3
:1001900002D9044B03B11847704700BF9F060020E7
:1001A0009C0600200000000005490648091A891035
:1001B00001EBD171491002D0034B03B118477047CE
:1001C0009C0600209C0600200000000010B5064C94
:1001D000237843B9FFF7D8FF044B13B10448AFF3BA
:1001E00000800123237010BDA00600200000000045
:1001F000086C040808B5084B1BB108490848AFF360
:1002000000800848036813B9BDE80840CCE7064BF6
:10021000002BF9D09847F7E700000000A406002063
:10022000086C04089806002000000000134B002B07
:1002300008BF114B9D46A3F5803A00218B460F461F
:100240001148124A121A0CF05DFD0D4B002B00D024
:1002500098470C4B002B00D0984700200021040049
:100260000D000B480CF04EFC0CF07AFC200029002D
:1002700004F07AF90CF04CFC0000080000000000CB
:100280000000000000000000A0060020A0BD00202B
:1002900039CB000838B54FF4B971044604F11C0598
:1002A00005F0FCFE002222616261A26104F13C01C2
:1002B0002B4623F8022B8B42FBD104F2EC420020A8
:1002C00003F8010B9A424FF00001F9D1F023C4F872
:1002D000F034A4F8EC14A4F8EE14202228460CF014
:1002E00011FD0523237409236382024B6361A56119
:1002F000204638BD04000020222A70B506460C4670
:100300000ED105F0DDFE20280CD904F1210514F8EA
:10031000011F304605F016FFAC42F8D1002070BD39
:10032000042070BD052070BDF0B500238FB04FF4E0
:10033000E37540F252564FF6AE274FF63A6E01F093
:10034000C002802A02AC0BD0C02A06D0002A0CBF03
:1003500072463A4624F8132004E024F8136001E0C2
:1003600024F8135001338A00042BD1B2E7D104AA38
:10037000214610300BF0F4FE0023009304AA14234E
:100380000221024802F074FF0FB0F0BD0C6500209E
:10039000B0F8EC3470B5044623B12A4802F0C8FF27
:1003A00005460DE005F0AEFE28BB04E0A4F8EC1411
:1003B0000023A4F8EE34B4F8EC34002B41D0ECE781
:1003C000142D3ED9B4F8EE345A1C2344A4F8EE247C
:1003D00093F83C102046FFF7A7FFB4F8EE24B4F8DA
:1003E000EC34143D9A42ADB2EAD30023A4F8EE34C3
:1003F000A4F8EC3470BD144B1B785BB9D4F8F0143E
:100400005F209AB2914203F10103CFD9224482F8CE
:100410003C00F6E704F13B0604F15C05204605F0DC
:10042000B7FE06F8010FB542F8D1084900235A5C1F
:1004300005F8012F0133272BF9D14823A4F8EC3418
:10044000B6E770BD0C6500200865002064D3000885
:1004500008B505F035FE2323B0FBF3F0C0B208BDAC
:100460000C234FF4167203FB0121B1F5966F8ABF7E
:100470004FF49663C0F8F014C0F8F034704730B50C
:10048000002200240025C0E900458260C26002828B
:1004900042618261027730BDF0B500240025C0E9D9
:1004A00000450C4E2501AF5D8F4206D109490D4430
:1004B000D5E90245C0E9004502E00134322CF1D112
:1004C000D0E9004554EA05011DBF8260C3600020E9
:1004D0000420F0BDB0D300082DE9F743044601EB3A
:1004E0006101636965682768D4F818E0007FA3613B
:1004F0004FEAE37903FB05F207FB0922A3FB078917
:1005000091444FEAD87242EA490202F31E02CEEB4E
:1005100042021144228A6161013292B241F2707E3C
:1005200000F0FE0672452677228250D181FB0189B8
:100530004FEAD87E4EEA490E83FB03894FEAD87C06
:100540004CEA490C83FB01894FEAD87848EA49080C
:1005500008F31E034FEAE3795D4307FB0955A3FB4C
:10056000078900F00203002BA944A3680EF31E0EB6
:100570000CF31E0C4FEAD872E64418BFE36842EA57
:10058000490202F31E02AEEB420214BF0125002510
:100590009342C8BF20F0030046F00101CCBF40F0F9
:1005A000010046F003062177D4BF26772077217F0C
:1005B000C1F340018D4206D000911BB212B2064930
:1005C000064801F0B8FD002323826361A361207F08
:1005D00003B0BDE8F08300BF8BD3000828300020B3
:1005E0000023436183610377038270470022027016
:1005F0007047000008B5037853B1064802F098FE32
:10060000A52805D9AA210448BDE8084000F066B82D
:1006100008BD00BF0C6500203C310020012A06D136
:100620000B785A1E53425341037000207047042038
:100630007047000038B54FF47A61044604F11C0598
:1006400005F02CFD002222826261A26104F5B871DE
:100650002B4623F8022B8B42FBD104F50E720020AF
:1006600003F8010B9A424FF00001F9D14823A4F896
:100670003C32A4F83812A4F83A124FF4AA72284671
:100680000CF040FB06232382024B6561A3612046E8
:1006900038BD00BF5E00002008B5B0F8383213B98D
:1006A00005F030FD00B1012008BD442A70B50646B2
:1006B0000C460ED105F004FD43280CD9651E4334C9
:1006C00015F8011F304605F03DFDA542F8D1002088
:1006D00070BD042070BD052070BD000070B50646D9
:1006E000ADF5227D0D4600242B0602AB4CBF0F4911
:1006F0000F491819282228340CF06AFA6D00B4F555
:10070000A07FEDB2F0D152AA02A906F11000A023F9
:100710000BF022FF0023009352AAA02306210548D4
:1007200002F0A6FD0DF5227D70BD00BFF8D60008D1
:10073000D0D600080C65002038B5044605F0E2FC70
:10074000B4F8383208B903B938BD3BBB254A127832
:100750009AB9B4F83C52AA219AB2954203D8002320
:10076000A4F83A321AE0B4F83822501C2244A4F813
:100770003802013382F87011EEE74425204605F077
:1007800007FDB4F83832013D5A1C234415F0FF052B
:10079000A4F8382283F87001F0D1E0E7B4F83832D9
:1007A000F3B1114802F0C4FD0546A02D18D9B4F8E4
:1007B0003A325A1C2344A4F83A2293F87011204686
:1007C000FFF78CFFB4F83A22B4F83832A03D9A42D1
:1007D000ADB2EAD30023A4F83A32A4F8383238BDD7
:1007E00038BD00BF086500200C65002001EB410109
:1007F0004908483189B296298ABF9623A0F83C124D
:10080000A0F83C32704708B505F05AFC4423B0FB11
:10081000F3F0C0B208BD10B5044604F03FFB00235E
:10082000237563752361204610BD38B5457D0446A8
:10083000EDB9037D93B1012B12D103691943016115
:10084000C1F3072104F07AFBA17C204604F076FB7B
:10085000E17C204604F072FB256101E0090301619F
:10086000237D0133DBB2012B88BF00232375637D19
:100870000133DBB2022B88BF0023637538BD002231
:1008800002608280C28070472DE9F8431446214AF5
:100890000546002312F833001E4F884204D1DBB214
:1008A00017EBC30704D12EE00133322BF2D12AE03B
:1008B00028687B88AB8008B10CF0E2F8A88840007B
:1008C0000CF0DCF804EB44060021286004EB8606FB
:1008D0008846AB888CB2A34201F1010916D9404683
:1008E0000CF0B0F82A68C317A0FB060106FB031141
:1008F000C30F43EA410303F30F0322F814307B686C
:1009000049469844E5E70420BDE8F8830020BDE8A7
:10091000F88300BF20D70008C3885A1C92B210B5D4
:100920000468C28034F91330848894429CBF00224A
:10093000C28011B1584200B210BD184610BD024627
:10094000002310B502F8013B00F2E934194602F821
:10095000011BA2424FF00003F9D1A0F8EA33A0F83E
:10096000EC33A0F8EE33A0F8F033C0F8F433A0F87D
:10097000F833A0F8FA33A0F8FC33A0F8FE3310BD2A
:100980002DE9F74F0446DFF80C81DFF80C910020C9
:10099000A4F8EA03C5B211F805E0BEF1000F48D093
:1009A00000260C27F5B27D4308EB050718F8055023
:1009B000002D3CD0AE4506F10106F2D13D7A0195FD
:1009C0004FF0000C4FF0004E019E5FFA8CF5AE42E6
:1009D0002DD97E68B4F8EA533EEA06064FEAE50AE6
:1009E0000CBF04EB0A0604EB0A0605F0070B0BBF6D
:1009F0007678767819F80BB019F80BB0A2440CBFD2
:100A00004BEA060626EA0B068AF8016040F2E23657
:100A1000B5420CF1010C04D90023A4F8EA330420F8
:100A200035E00135A4F8EA534FEA5E0ECCE7013019
:100A3000B0E79DF83010D4F8F403A4F8FC139DF847
:100A40003410A4F8FE1345F6C051B1FBF2F2B1FB2D
:100A5000F3F3A4F8EE23A4F8F83308B10CF010F87F
:100A6000B4F8F8030CF00AF8B4F8F813C4F8F40377
:100A700003464C08002501261A1A92B2914205D964
:100A800094428CBF1E701D700133F5E7002003B047
:100A9000BDE8F08FB0D80008C0DA0008037810B5C0
:100AA000002B3ED0B0F8EC231F4C00EBD20302F039
:100AB00007015B78615C0B400CD0B0F8FA33D0F8DA
:100AC000F413CB5C13B1B0F9FC3303E0B0F8FC33A2
:100AD0005B421BB2B0F8FA13B0F8F843013189B2A7
:100AE0008C42A0F8FA139CBF0021A0F8FA13B0F8CA
:100AF000F013B0F8EE43013189B28C42A0F8F01344
:100B00000FD80132B0F8EA4392B200219442A0F823
:100B1000EC23A0F8F0139EBF0170A0F8EC13A0F82E
:100B2000FA13184610BD00BFC0DA0008037810B5EC
:100B3000002B3ED0B0F8EC231F4C00EBD20302F0A8
:100B400007015B78615C0B400CD0B0F8FA33D0F849
:100B5000F413CB5C13B1B0F9FE3303E0B0F8FE330D
:100B60005B421BB2B0F8FA13B0F8F843013189B216
:100B70008C42A0F8FA139CBF0021A0F8FA13B0F839
:100B8000F013B0F8EE43013189B28C42A0F8F013B3
:100B90000FD80132B0F8EA4392B200219442A0F893
:100BA000EC23A0F8F0139EBF0170A0F8EC13A0F89E
:100BB000FA13184610BD00BFC0DA00080023037006
:100BC000A0F8EC33A0F8F033A0F8FA3370470078BF
:100BD0007047B0F8EC3343B9B0F8F0332BB9B0F844
:100BE000FA03003018BF012070470120704708B594
:100BF0000246FFF7EEFF38B901231370A2F8EC03A9
:100C0000A2F8F003A2F8FA0308BD000030B58BB0DB
:100C1000C57A047A8378427801780995857A0895AF
:100C2000457A0795E50904F07F0406950594C47993
:100C30000494847903944479029404790194C078EB
:100C4000009001EB8101024801F0AAFC0BB030BD1D
:100C50008092002010B50246044600F58071002005
:100C600002F8010B8A424FF00003F9D184F80031F9
:100C700084F8013184F802314FF4B97104F58270BF
:100C800005F00CFA204610BD1FB570228DF80E201D
:100C900082788DF80F20E02300228DF80C3000922E
:100CA000042303AA01218DF80D3008F0E4FD05B0FE
:100CB0005DF804FB1FB57F228DF80A2082788DF83D
:100CC0000B20E02300228DF808308DF80C1005234E
:100CD0000092012102AA8DF8093008F0CCFD05B080
:100CE0005DF804FB2DE9F047824688B0774802F0B2
:100CF000C8FD00228DF80F20754AE0238DF80C30D6
:100D000011780D238DF80D3001238DF80E309146AA
:100D100009B18DF80F306F4B1A7898462AB19DF8BB
:100D20000F3043F002038DF80F306B4F3B782BB13F
:100D30009DF80F3043F004038DF80F30674E337881
:100D40002BB19DF80F3043F008038DF80F30644D40
:100D50002B782BB19DF80F3043F010038DF80F3036
:100D6000604C23782BB19DF80F3043F020038DF8B1
:100D70000F305D4B1B782BB19DF80F3043F04003D3
:100D80008DF80F30594B51481B788DF81030584B67
:100D90000DF10B021B788DF811300DF10A0102F0F4
:100DA00058FD9DF80A302BB19DF8113043F0020335
:100DB0008DF81130454802F061FD28B19DF81130E1
:100DC00043F004038DF81130404802F054FD28B17F
:100DD0009DF8113043F008038DF811303B4802F0C4
:100DE00057FD28B19DF8113043F010038DF81130F4
:100DF0009DF80B302BB19DF8113043F020038DF896
:100E000011303C4A9DF811301278002A14BF40225C
:100E1000002213438DF8113099F800302BB1364879
:100E200003F0F8F88DF8120001E08DF8123098F810
:100E30000030A3B1314B1B7843B1314808F0B6FE06
:100E40008DF813002E4808F0B9FE05E00A232D485E
:100E50008DF81330FFF7FCFA8DF8140003E08DF8DD
:100E600013308DF814303B782BB1274802F054FE34
:100E70008DF8150001E08DF8153033782BB123483B
:100E800005F0FEF88DF8160001E08DF816302B788D
:100E90002BB11F4807F052FF8DF8170001E08DF8C5
:100EA000173023782BB11B48FFF7ADFC8DF81800E5
:100EB00001E08DF818300023009303AA0D230121CF
:100EC000504608F0D8FC08B0BDE8F0870C6500205B
:100ED0005D0200205C0200205B0200205E02002018
:100EE0005A0200205F0200205902002088330020AF
:100EF0000865002089330020DC1000205802002003
:100F00008C33002064B00020B89B0020783400208F
:100F1000480B00203C31002010B5A8B0E0238DF82C
:100F20000830002201230D4C8DF80A208DF80B307B
:100F3000D1B2131D615CDBB2013229B10DF1A00EFB
:100F4000734403F8981CF3E7009102AA01218DF87D
:100F5000093008F090FC28B010BD00BFCEDE0008BC
:100F60002DE9F04F072A97B035D989464B7819F803
:100F7000060F0C788D78CE780F7991F805E0A2F104
:100F8000080B5FFA8BFB03EB83030BF1070B00F0FD
:100F9000010CC0F340085B00C0F380000DF1230A90
:100FA000594419F801BF0AF801BF8945F9D1D11F89
:100FB00016AA52FA81F1002201F8342C0690CDF8DD
:100FC0001480CDF810C08DE8E040224609A90448FD
:100FD00001F082FA00E0042017B0BDE8F08F00BFF6
:100FE00080920020F0B5052A93B029D9C8784B78B3
:100FF0000E788F7800EB80000C464500901FC0B241
:1010000003EB8303053014F804EF5B000DF1130CC0
:10101000014414F8010F0CF8010F8C42F9D1511F53
:1010200012AA52FA81F1002201F8342C0648CDF8B8
:1010300008E001950097324605A901F08DFA00E01D
:10104000042013B0F0BD00BF809200200B2A02D90B
:101050000846FFF7DBBD042070474FF4E132012161
:1010600008F0DEBBF0B5154B1B78012B91B023D8EF
:10107000134B1B7803B3E0238DF80C30CDB2102353
:101080008DF80E30C5F10307CBB2DC195B1BDBB268
:101090009A42E4B206D910AB234411F8016B03F86D
:1010A000346CF1E7D31C0022DBB20092012103AAC9
:1010B0008DF80D3008F0DFFB11B0F0BD8833002053
:1010C0005D020020F0B5154B1B78012B89B023D8A9
:1010D000134B1B7803B3E0238DF80C30CDB21123F2
:1010E0008DF80E30C5F10307CBB2DC195B1BDBB208
:1010F0009A42E4B206D908AB234411F8016B03F815
:10110000146CF1E7D31C0022DBB20092012103AA88
:101110008DF80D3008F0AFFB09B0F0BD883300202A
:101120005D0200201FB50C4B1B78012B11D80B4B17
:101130001B7873B11222E0238DF80E2000228DF867
:101140000C300092032303AA01218DF80D3008F022
:1011500092FB05B05DF804FB883300205D0200209F
:101160001FB50C4B1B78012B11D80B4B1B7873B19F
:101170001322E0238DF80E2000228DF80C3000920F
:10118000032303AA01218DF80D3008F074FB05B08C
:101190005DF804FB883300205D020020F0B5184C98
:1011A000247814F0FD0F8DB027D1164C247824B389
:1011B00000294FF0E00414BF1A211821D5B28DF890
:1011C00008408DF80A10C5F10307D1B2CC19491BAC
:1011D000C9B28B42E4B206D90CA9214412F8016BC2
:1011E00001F8286CF1E700220333DBB20092012101
:1011F00002AA8DF8093008F03EFB0DB0F0BD00BF2B
:10120000883300205C0200201FB50E4B1B7813F0C2
:10121000FD0214D10C4B1B788BB100294FF0E00379
:1012200014BF1B2119218DF80C308DF80E100323EB
:101230000092012103AA8DF80D3008F01CFB05B0C7
:101240005DF804FB883300205C020020F0B5164BEB
:101250001B78032BA5B000D01BBB144B1B7803B32A
:10126000E0238DF80C30CDB220238DF80E30C5F17F
:101270000307CBB2DC195B1BDBB29A42E4B206D99E
:1012800024AB234411F8016B03F8846CF1E7D31C01
:101290000022DBB20092012103AA8DF80D3008F084
:1012A000EAFA25B0F0BD00BF883300205B020020C1
:1012B0001FB50D4B1B78032B00D08BB90B4B1B7844
:1012C00073B12122E0238DF80E2000228DF80C301E
:1012D0000092032303AA01218DF80D3008F0CBFA08
:1012E00005B05DF804FB00BF883300205B020020DE
:1012F000F0B5164B1B7813F0FB0FA1B023D1144BA4
:101300001B7803B3E0238DF80830CDB230238DF87D
:101310000A30C5F10307CBB2DC195B1BDBB29A4282
:10132000E4B206D920AB234411F8016B03F8786CC2
:10133000F1E7D31C0022DBB20092012102AA8DF852
:10134000093008F098FA21B0F0BD00BF88330020C2
:101350005E020020F0B5164B1B7813F0FB0FC3B0F4
:1013600023D1144B1B7803B3E0238DF80C30CDB29E
:1013700031238DF80E30C5F10307CBB2DC195B1BAE
:10138000DBB29A42E4B206D942AB234411F8016BB6
:1013900003F8FC6CF1E7D31C0022DBB200920121C0
:1013A00003AA8DF80D3008F066FA43B0F0BD00BF17
:1013B000883300205E0200201FB50C4B1B7813F011
:1013C000FB0210D10A4B1B786BB1E02332218DF860
:1013D0000C308DF80E1003230092012103AA8DF822
:1013E0000D3008F048FA05B05DF804FB88330020A2
:1013F0005E020020F0B5164B1B78052BA5B000D07F
:101400001BBB144B1B7803B3E0238DF80C30CDB21B
:1014100040238DF80E30C5F10307CBB2DC195B1BFE
:10142000DBB29A42E4B206D924AB234411F8016B33
:1014300003F8846CF1E7D31C0022DBB20092012197
:1014400003AA8DF80D3008F016FA25B0F0BD00BFE4
:10145000883300205A0200201FB50D4B1B78052B46
:1014600000D08BB90B4B1B7873B14122E0238DF870
:101470000E2000228DF80C300092032303AA0121D4
:101480008DF80D3008F0F7F905B05DF804FB00BFEA
:10149000883300205A020020F0B5144B1B78632BD0
:1014A000A5B020D1E0238DF80C30CDB208238DF803
:1014B0000E30C5F10307CBB2DC195B1BDBB29A42DD
:1014C000E4B206D924AB234411F8016B03F8846C11
:1014D000F1E7D31C0022DBB20092012103AA8DF8B0
:1014E0000D3008F0C8F925B0F0BD00BF88330020EA
:1014F000F0B5144B1B78602B8BB020D1E0238DF816
:101500000830CDB209238DF80A30C5F10307CBB2FC
:10151000DC195B1BDBB29A42E4B206D90AAB234466
:1015200011F8016B03F8206CF1E7D31C0022DBB249
:101530000092012102AA8DF8093008F09CF90BB045
:10154000F0BD00BF8833002010B590F80231A4B080
:10155000CBB1E0238DF80C30F1238DF80E30002252
:10156000D4B2D31C0C5DDBB201322CB10DF1900E64
:10157000734403F8844CF3E70121009103AA8DF82A
:101580000D3008F078F924B010BD00005F2910B5C7
:101590000C4650D021D8052945D00FD802293BD080
:1015A00006D8012959D14C494C48FFF7CDFF70E0CE
:1015B000032936D0042950D1494947E05B2944D05A
:1015C00005D8062931D00A2947D146493EE05C2991
:1015D00039D05D2941D1444938E0662931D00CD851
:1015E000622926D003D8602937D140492EE06329EB
:1015F0001DD0652931D13E4928E069291FD005D881
:1016000067291AD0682928D13A491FE06A2918D0D9
:101610006B2922D1384919E038493048FFF794FF47
:1016200021E0374912E0374910E037490EE03749E9
:101630000CE037490AE0374908E0374906E0374906
:1016400004E0374902E0374900E037492348FFF713
:101650007BFF364806F004FA0AE035491F48FFF7D9
:1016600073FF012C15D0314806F0FAF9022C2FD067
:10167000304802F0FAFC304805F0AEFD2F4806F085
:10168000A5FE032C0ED12E4803F04DFD052C13D0E2
:101690000DE0284802F0E9FC274805F09DFD2748A9
:1016A00006F094FE274805F07BF9042CEBD1264880
:1016B00003F0EEF80A2C02D0244800F0D7FE2448AC
:1016C00007F0C2FD21462348BDE8104001F046BEA8
:1016D0001C4805F065F9D6E7D8DA00082830002064
:1016E00005DB000839DB000853DC00087FDB00085D
:1016F000BDDC0008F6DB000834DC0008C8DA0008AE
:10170000EBDA000815DB000826DB000848DB0008E0
:1017100065DB00089ADB0008D5DB000815DC000853
:10172000B6DB000875DC00089ADC0008A061002028
:10173000DADC0008F8390020C07B0020801300208C
:10174000483F002040680020B8A000208092002080
:10175000580700200C6500202DE9F04F142A9FB097
:1017600001D8042021E10D78C5F3001380F802317F
:101770008E78322EF5D84C7891F803E004F002020E
:1017800004F0040304F0080A04F0100904F020082F
:1017900004F04007BEF1060FD2B2DBB25FFA8AFA5C
:1017A0005FFA89F95FFA88F8FFB210D9BEF10A0F23
:1017B00035D0AEF15B0C5FFA8CFCBCF1100FD0D8C9
:1017C000DFF838B22BFA0CFC1CF0010F04E0BEF17C
:1017D000010F03D114F0010FC3D022E0BEF1020FBC
:1017E00002D1002ABDD01CE0BEF1030F02D1002BB4
:1017F000B7D016E0BEF1040F03D1BAF1000FB0D09C
:101800000FE0BEF1050F03D1B9F1000FA9D008E038
:10181000BEF1060F05D1B8F1000FA2D001E0002FF4
:101820009FD091F806B0BBF10F0F9AD81D930B799A
:101830000D93CB790E934B790F934B7A91F80DC0A2
:1018400010938B7A1193CB7A1293ACF1800C0B7BB3
:1018500013930FFA8CF391F80EC01493ACF1800C33
:101860000FFA8CF31593CB7B16930B7C17934B7C61
:1018700018938B7C1993CB7C1A930B7D1C92714629
:101880001B93FFF783FE4A491C9A1D9B494804F0AD
:10189000010400320C70484918BF01220A7000335D
:1018A000464A18BF012313701AF1000A444B454AF7
:1018B00018BF4FF0010A83F800A019F10009424B4C
:1018C00018BF4FF0010983F8009018F100083F4B52
:1018D00018BF4FF0010883F8008000373C4B18BF59
:1018E00001271F70EB43C3F3C0133146137002F09E
:1018F00081FB3146374802F0FFF83146364804F0A4
:10190000AFFB31463548FEF7ABFD3146344807F0B2
:1019100005FA31463348FEF769FF5946324808F068
:10192000B7FA5946314806F039FD0E992F4806F0AE
:1019300041FD59462E4805F011FE59462D4802F04A
:101940004DFD179A2348C5F3C00102F0EDF81A992E
:10195000214804F09DFB1B99214807F0F7F9C5F3D6
:1019600040130B93159B0A93149B0993199B08939F
:10197000189B0793169B0693139B0593129B049346
:10198000119B0393109B02930F9B01930D9B00935C
:10199000C5F34002C5F3800305F00101164801F0CC
:1019A000F9FE154801F0E2FC00201FB0BDE8F08F01
:1019B0005D020020DC1000205C0200205B020020A1
:1019C0005E020020580200205A0200205F02002020
:1019D00059020020B89B00207834002064B0002019
:1019E000480B00203C3100208C3300208013002065
:1019F000C07B0020F83900200C650020BFFD0100ED
:101A000008B5002A32D01A4B09781B788B422BD0AC
:101A100006290CD90A2922D0A1F15B03DBB2102BD5
:101A200024D8144A22FA03F3DB071BD41EE0012951
:101A300001D1114B14E0022901D1104B10E0032910
:101A400001D10F4B0CE0042901D10E4B08E0052910
:101A500001D10D4B04E0062904D10C4B00E00C4BE6
:101A60001B781BB1FFF792FD002008BD042008BDC4
:101A700088330020BFFD01005D0200205C020020D1
:101A80005B0200205E0200205A0200205F0200205C
:101A90005902002070B590F80231A4B023B3E023BE
:101AA0008DF80C30F2238DF80E300025ECB2E31CDB
:101AB0000E5D0DF1900E01355EFA83F316B103F859
:101AC000846CF3E7111203F8841C631D24A9043409
:101AD00051FA84F4012104F8842CDBB2009103AAAA
:101AE0008DF80D3007F0C7FE24B070BD2DE9F04130
:101AF000AF4DB04F04462E460121204607F09AFE16
:101B00008046002800F097820121204607F0A9FEB8
:101B100094F8002152B9E02803BF0123207084F813
:101B2000003184F8002184F80121E5E7012A06D17B
:101B30000223607084F8010184F80031DCE7A054CE
:101B400002F1010894F801315FFA88F8434584F8FE
:101B50000081D1D1A3781C2B00F0C08129D8082B9B
:101B600000F08B8010D8022B4DD008D8002B46D027
:101B7000012B40F056822046FFF7B4F855E2032BC4
:101B800048D0042B57D04CE2112B00F0FB8006D834
:101B90000A2B00F0CA80102B00F0DA8041E2182BEB
:101BA00000F03D811A2B00F05481132B40F0398254
:101BB00022E1402B00F0038211D8202B00F0B481E9
:101BC00006D81D2B00F066811E2B00F09A8128E2BA
:101BD000302B00F0C381312B00F0DA8121E2612B40
:101BE00039D005D8502B00F00382602B27D018E2A3
:101BF000622B18D0903B012B40F2178211E2204655
:101C0000FFF78AF911E2023AD2B2E11C2046FFF74F
:101C1000A3FD05E0023AD2B2E11C2046FFF7F0FE38
:101C2000014640B1FEE1023A0B2A20D9E01CFEF742
:101C3000EDFF8046E8B92046FFF726F8F5E1023AC5
:101C4000D2B2E11C2046FFF78BF980460028F2D083
:101C500002B2594919E1023AD2B2E11C2046FFF71B
:101C6000C1F980460028E6D002B254490DE14FF098
:101C700004080FFA88F2524907E12B78632B07D149
:101C8000023AD2B2E11C4F4807F0F0F9804601E079
:101C90004FF0020833785C3BDBB2062B0DD84D22A7
:101CA00022FA03F3DB0708D594F801214648033AEA
:101CB000D2B2E11C06F064FD80463378663B052B0A
:101CC00008D894F801214148033AD2B2E11C05F04A
:101CD00073FE804633785D2B08D194F801213C488F
:101CE000033AD2B2E11C06F091FD804633785B2BBB
:101CF00008D194F801213748033AD2B2E11C00F030
:101D000037FB80463378652B08D194F8012132489F
:101D1000033AD2B2E11CFEF781FC8046B8F1000F15
:101D200089D00FFA88F22D49AFE02B7853B9023AE7
:101D3000D2B2E11C2A4807F015FA8046002800F0CC
:101D4000748101E04FF005080FFA88F225499CE004
:101D5000254B1B7883B12B78012B0DD8023AD2B2D8
:101D6000E11C224801F01AFF804638B92B78002B7D
:101D700040F05B81012168E04FF002080FFA88F221
:101D80001B4982E0184B1B7863B12B78012B09D8D3
:101D9000023AD2B2E11C154801F026FF8046002825
:101DA000E4D001E04FF002080FFA88F211496CE02C
:101DB000883300205C020020EBDC000808DD00080E
:101DC00025DD000860B0002034B000208C610020C8
:101DD000B4A0002009650020460B002042DD000869
:101DE0005807002064DD00085D020020DC100020A0
:101DF00077DD000896DD0008984B1B784BB12B78F7
:101E0000012B06D8964801F015FF80460028ADD07A
:101E100001E04FF002080FFA88F2924935E03B7872
:101E200073B32B7813F0FD0F2AD18F4B1B783BB384
:101E3000023AD2B2E11C8D4807F0B8FD804608BBDB
:101E40002B78002B40F0F18002212046FFF79EFB0B
:101E5000EBE03B78A3B12B7813F0FD0F10D1824B50
:101E60001B78023AE11CD2B21BB1804807F0C8FDD2
:101E700002E07F48FEF740FA804618B93378E0E781
:101E80004FF002087B490FFA88F27B48FFF702FE09
:101E90004146C7E03B78E3B1B8F1040F40F0D88089
:101EA000E178012908D12B78022B14D1734B1B78D0
:101EB000002B40F0BA8008E069B92B78022B0AD1D8
:101EC0006E4B1B78002B00F0B080684807F014FEC2
:101ED000ABE04FF0020842466949D6E73B7853B180
:101EE000023AD2B2E11C614807F0B8FD80460028F2
:101EF00000F09B8001E04FF002080FFA88F2614980
:101F0000C3E73B7853B1023AD2B2E11C574807F01D
:101F1000DDFD8046002800F0888001E04FF00208D7
:101F20000FFA88F25849B0E7584B1B7883B12B78E9
:101F30000BB1032B0CD1023AD2B2E11C544801F090
:101F4000E5FC804630B93378002B6ED103217CE765
:101F50004FF002080FFA88F24E4996E74E4B1B7875
:101F600083B12B7813F0FB0F0CD1023AD2B2E11CF3
:101F70004A4803F079FF804630B92B78002B54D1C2
:101F8000042162E74FF002080FFA88F244497CE727
:101F9000414B1B786BB12B7813F0FB0F09D1023A40
:101FA000D2B2E11C3D4803F05FFF80460028E4D038
:101FB00001E04FF002080FFA88F23A4965E73A4B20
:101FC0001B787BB12B780BB1052B0BD1023AD2B227
:101FD000E11C364806F0A4FD804628B9337823BBBF
:101FE000052132E74FF002080FFA88F230494CE73A
:101FF000304B1B787BB12B780BB1062B0BD1023AFF
:10200000D2B2E11C2C48FEF750FB804628B9337849
:102010005BB9062119E74FF002080FFA88F2274949
:1020200033E701212046FEF745FE002384F8003106
:1020300084F8013160E5224801F027FC4BF67F333C
:10204000984208D984F8008184F80181BDE8F081C4
:102050004FF004083FE7BDE8F08100BF5D020020BB
:10206000DC100020B3DD0008580200208C33002073
:1020700064B00020CFDD0008283000200865002073
:10208000E9DD000804DE000822DE00085B02002013
:10209000B89B00203DDE00085E020020783400205E
:1020A00061DE00087DDE00085A020020480B002097
:1020B00096DE00085F0200203C310020B1DE0008FF
:1020C0000C650020F0B51F4690F80231A5B083B32F
:1020D000E0238DF80C30F3238DF80E300026F4B297
:1020E000E51C0B5D0DF1900E01365EFA85F513B11E
:1020F00005F8843CF3E7131205F8843C211D24AB5A
:1021000053FA81F101F8842C621D53FA82F23B12DA
:1021100002F8843CE21DD3B2063424AA52FA84F4B5
:10212000012104F8847C03AA00918DF80D3007F09A
:10213000A2FB25B0F0BDF0B590F80241A5B0BDF905
:10214000A860002C3ED0E0248DF80C40F4248DF8DB
:102150000E400027FCB2E51C11F804E00DF1900CD4
:1021600001375CFA85F5BEF1000F02D005F884EC6A
:10217000F0E7111205F8841C24AD211D55FA81F1F8
:1021800001F8842C621D55FA82F2191202F8841C9F
:10219000A21D55FA82F2012102F8843CE31D55FA92
:1021A00083F3321203F8842C04F10903083455FA3E
:1021B00084F4DBB204F8846C03AA00918DF80D302E
:1021C00007F059FB25B0F0BD2DE9F04190F8024130
:1021D000A4B0BDF9A870BDF9AC60002C4ED0E024CD
:1021E0008DF80C40F5248DF80E404FF0000E5FFA8C
:1021F0008EF4E51C11F804C00DF190080EF1010EEB
:1022000058FA85F5BCF1000F02D005F884CCEEE752
:10221000111205F8841C24AD211D55FA81F101F835
:10222000842C621D55FA82F2191202F8841CA21D38
:1022300055FA82F2012102F8843CE31D55FA83F33A
:102240003A1203F8842C04F1080355FA83F332128E
:1022500003F8847C04F1090355FA83F303F8842C12
:1022600004F10B030A3455FA84F4DBB204F8846CED
:1022700003AA00918DF80D3007F0FDFA24B0BDE8F7
:10228000F08100224FF4804102804280818082717F
:10229000826002737047C9010180D20149424180C6
:1022A00082807047B0F9003030B583B382795AB973
:1022B0008B4205DC0123837100238360037303E0F9
:1022C000B0F902308B42F5DA837903B38268B2F554
:1022D000166F13D8037B0F4DB0F904105C1C55F832
:1022E0002330E4B259430B2C4FEAE131047301F37C
:1022F0000F0109B203D90023037300E00021531C2E
:1023000042F6DF629342836084BF002383710846F4
:1023100030BD00BF28DF00080022027042708270CA
:102320007047000010B504460F4806F06BFC0E48DD
:1023300006F004FDB0B16378012B10D10B4BA178EE
:102340000948312202FB013106F0EAFBA378013390
:1023500003F00303A370237823B9637010BD002337
:102360006370A37010BD00BF480B002058DF000849
:10237000012A0BD10A78012A0CBF01230023037024
:1023800006D1437823B9427018467047042070473D
:1023900000207047002202604260704718235A43B1
:1023A00045F6C05303FB0121016070470068182304
:1023B000B0FBF3F0704703680BB101234360704733
:1023C00000234360704743681BB102680AB10B44A5
:1023D000436070474068003018BF012070470268B2
:1023E00032B1436833B19A422CBF002001207047BC
:1023F00010467047184670470346F0B58768C668B0
:10240000056940699C69DA699960784305FB0105B3
:1024100018681F6000FB045002FB16005C681A6A13
:102420005E6004FB1200C01300F30E0000B2D8601F
:10243000F0BD00001FB500F624140B4800F078FF33
:1024400002280FD90DF10E01204606F03CF848B1E4
:10245000002300930DF10E0201230A21024800F02F
:1024600007FFEAE704B010BD0C650020002310B59B
:10247000044680F8343800F63800FFF7A1FF04F571
:102480000460FFF79DFF04F50560FFF799FF04F670
:102490005800FFF795FF04F50660FFF791FF04F67B
:1024A0006800FFF78DFF04F50760FFF789FF04F56B
:1024B0000060FEF795F804F58060FEF77FFB20468C
:1024C000FEF77CFB04F6280000F0C2FD04F62410A1
:1024D000BDE8104006F01CB82DE9F74F9DF83440D8
:1024E0009DF830509DF83CB0C4EB04149946A4000C
:1024F0009DF838300193A4B29DF8483080F8373801
:102500000F4690469DF840109DF8442080F83518FD
:1025100000F6480A80F83628064600222146504632
:10252000FFF73CFFC5EB0511890089B2002206F6D2
:102530003800FFF733FF14B15046FFF73CFF019B13
:102540000C9342464B4639463046CDF834B003B082
:10255000BDE8F04FFEF714BA2DE9F047BDF824703E
:102560009DF820609DF82850044688469146002139
:102570003A4600F506609A46FFF710FF2EB13A463C
:10258000314604F65800FFF709FF099508955346B0
:102590004A46414604F58060BDE8F047FEF7F0B9D1
:1025A0002DE9F74F04469DF844E09DF8480084F873
:1025B000F4E815461E469DF84C209DF838300093EF
:1025C00084F8F5089DF83C30A4F8F62804F504607A
:1025D00000229DF830709DF8348001939DF840B042
:1025E0009DF850A09DF85490FFF7D8FE019B002263
:1025F000194604F50560FFF7D1FE0022594604F69E
:102600006800FFF7CBFE294604F6280000F0EEFC38
:102610002A46514604F6E400FFF73DFEA4F810995F
:1026200043463A46314604F50060FDF735FF40B9B0
:10263000009A314604F5026003B0BDE8F04FFEF7A2
:1026400023B903B0BDE8F08F38B504460D4600F657
:102650003800FFF7B8FE294604F50460FFF7B3FE23
:10266000294604F64800FFF7AEFE294604F505604A
:10267000FFF7A9FE294604F65800FFF7A4FE2946F5
:1026800004F50660FFF79FFE294604F66800FFF791
:102690009AFE294604F50760BDE83840FFF793BE6F
:1026A00038B500F6480504462846FFF793FE78B192
:1026B0002846FFF794FEA0B10A490B48FEF744FFF5
:1026C0002046FEF794FA2846BDE83840FFF773BE6F
:1026D00005480449FEF738FF2046BDE83840FEF7BC
:1026E00086BA38BD1CE000082830002070B50446CA
:1026F0000E4600F50565E1B12846FFF770FEB0B360
:102700001B491C48FEF720FF022384F83438284672
:10271000FFF756FE94F835384BB394F8373833B397
:102720002046FFF7BDFF04F63800BDE87040FFF714
:1027300042BE114800F000FE31460F4800F00AFE8C
:102740000E490C48FEF700FF284684F83468FFF76E
:1027500037FE04F50460FFF733FE04F65800FFF778
:102760002FFE04F63800BDE87040FFF729BE70BDAB
:102770002AE00008283000200C6500203CE000081A
:1027800038B504460D4651B100F504652846FFF7FB
:1027900021FEB0B12846FFF722FEE8B911E01C483F
:1027A00000F0CAFD29461A4800F0D4FD19481A491C
:1027B000FEF7CAFE032384F8343804F50660FFF7F9
:1027C000FAFD04F638052846FFF704FEF8B128465E
:1027D000FFF705FE98B938BD10490E48FEF7B4FE64
:1027E000042384F8343804F65800FFF7E9FD28463E
:1027F000FFF7E6FD04F6280000F024FCE1E72046A0
:10280000FFF74EFF2846BDE83840FFF7D4BD38BD7E
:102810000C650020283000204FE0000866E000082A
:1028200070B5044600F5066691B101212A4800F012
:1028300083FD0121284800F08DFD28492848FEF736
:1028400083FE022384F834383046FFF7B9FD23E0D5
:102850003046FFF7BFFDF8B13046FFF7C0FDD8B1F5
:102860001F482049FEF770FE04F65805062384F839
:1028700034382846FFF7AEFDC8B12846FFF7AFFD54
:10288000A8B93046FFF79CFD04F50460FFF798FDFA
:1028900004F66800FFF78FFD04F638052846FFF7B9
:1028A00099FDC0B12846FFF79AFD60B970BD0E4989
:1028B0000B48FEF749FE04F58060FEF798F92846BC
:1028C000FFF77EFDDDE72046FFF7EAFE2846BDE87C
:1028D0007040FFF770BD70BD0C6500202AE0000855
:1028E0002830002080E0000877E0000838B5044672
:1028F0000D4689B9124800F01FFD2946104800F026
:1029000029FD10481049FEF71FFE052384F83438CE
:1029100004F50660FFF74FFD04F638052846FFF77B
:1029200059FD58B12846FFF75AFD38B12046FFF748
:10293000B7FE2846BDE83840FFF73DBD38BD00BFB3
:102940000C650020283000208EE0000838B50446D1
:1029500000F5066591B10121284800F0EDFC012148
:10296000264800F0F7FC26492648FEF7EDFD042333
:1029700084F834382846FFF723FD07E02846FFF7A0
:1029800029FD18B12846FFF72AFD50B904F638058D
:102990002846FFF71FFD78B32846FFF720FD18BB38
:1029A00038BD19491748FEF7CFFD062384F834389F
:1029B00004F6280000F04CFB14491248FEF7C4FD51
:1029C00004F58060FEF713F92846FFF7F9FC04F6DA
:1029D0005800FFF7F5FC04F50460FFF7F1FC04F67E
:1029E0006800FFF7E8FCD1E72046FFF759FE2846CC
:1029F000BDE83840FFF7DFBC38BD00BF0C650020E4
:102A000066E000082830002080E0000877E0000839
:102A100010B5044600F50460FFF7CDFC04F658003D
:102A2000BDE81040FFF7C7BCF8B504460F4600F6F6
:102A30003805D1B10121244800F07EFC0121224853
:102A400000F088FC21492248FEF77EFD022384F82D
:102A5000343820491E48FEF777FD04F58060FEF704
:102A6000ADF82046FFF7D4FF1BE000F668063046BD
:102A7000FFF7B0FCA8B13046FFF7B1FC88B11649AA
:102A80001348FEF761FD84F834783046FFF798FC70
:102A900094F8363813B12046FFF702FE2846FFF7B8
:102AA0008FFC2846FFF796FC60B12846FFF797FC9D
:102AB00000B9F8BD2046FFF7F3FD2846BDE8F84011
:102AC000FFF779BCF8BD00BF0C6500202AE00008C4
:102AD00028300020A4E000083CE0000870B518256C
:102AE0004D43002400F61416AC4205D000213046B8
:102AF00005F0C6FC0134F7E770BD0000F8B50446E8
:102B0000FDF71DFF04F58060FDF719FF04F5006077
:102B1000FDF7B5FC04F502600025FDF7B0FE04F6F4
:102B2000280000F05BFA84F8345884F8355884F8AB
:102B3000365884F8375804F63800FFF72BFC04F5B4
:102B40000460FFF727FC04F64800FFF723FC04F5B8
:102B50000560FFF71FFC04F65800FFF71BFC04F5A7
:102B60000660FFF717FC04F5076704F66800FFF737
:102B700011FC3846FFF70EFC4FF43573C4F8883863
:102B8000C4F890384FF4B562334BC4F88C28C4F8BD
:102B90009438324AC4F8B42845F26833C4F89838F7
:102BA0002F4AC4F8B8284FF40043C4F8AC38C4F82E
:102BB000D038C4F8D83844F66C222A4BC4F8BC2864
:102BC000C4F8DC38284AC4F8D42847F6E423C4F80B
:102BD000E0380126C4F88058C4F87858C4F88458FE
:102BE000C4F87C58C4F8B058C4F8A458C4F89C5829
:102BF000C4F8A858C4F8A058C4F8C858C4F8C058B5
:102C0000C4F8CC58C4F8C45804F6E400FFF739FB04
:102C100084F8F46884F8F558A4F8F668802104F67E
:102C2000F800FDF7F8FDA4F810694FF4965104F68A
:102C3000141005F0D5FB4FF4166104F6241005F0CE
:102C4000CFFB962229463846FFF7A8FB2046642191
:102C5000FFF744FF2046F8BDF96BFFFF0080FFFF40
:102C60005D3BFFFFB505FFFF0000FFFF70B51825B6
:102C70004D43002400F62416AC4205D00021304616
:102C800005F0FEFB0134F7E770BD000038B50446DF
:102C9000002942D000F505652846FFF787FB98B16B
:102CA0001E491F48FEF750FC012384F8343828469B
:102CB000FFF781FB94F835388BB194F8373873B946
:102CC0002046FFF7EDFC0AE016491548FEF73CFCEC
:102CD000022384F8343894F83538002BF0D13221AF
:102CE0002046FFF7C3FF2046FFF792FE04F63800A8
:102CF000FFF761FB04F50760FFF762FB01210A485B
:102D000000F01AFB0121084800F024FB07490448A1
:102D1000FEF71AFC064B0A221A7038BDADE0000817
:102D2000283000202AE000080C650020BFE00008E1
:102D300088330020F8B590F834380446062B19D8AB
:102D4000DFE803F004070A0D10131600FFF79EFFDB
:102D500010E0FFF7CBFC0DE0FFF712FD0AE0FFF7F4
:102D60005FFD07E0FFF7C2FD04E0FFF7EFFD01E0C4
:102D7000FFF75AFE94F83438002B4ED1274B1A78BF
:102D80000A2A1D4649D12046FDF721FF50B904F516
:102D90008060FDF71CFF28B904F507663046FFF791
:102DA00019FBA0B12046FDF712FFB0BB04F580600F
:102DB000FDF70DFF074680BB04F507663046FFF7B9
:102DC00009FB50B33046FFF70AFB20B9F8BD304687
:102DD000FFF7F1FAE6E712491248FEF7B5FB04F6F1
:102DE00038002F70FFF7ECFA04F50460FFF7E8FAFB
:102DF00004F50560FFF7E4FA04F65800FFF7E0FA7F
:102E000004F50660FFF7DCFA04F66800FFF7D8FA6D
:102E10003046BDE8F840FFF7D3BAF8BD883300204C
:102E2000D2E00008283000202DE9F04F984690F8B5
:102E3000F53887B004460E4615460BB181F0010601
:102E400041462046FFF700FC634F05EB480804F5B8
:102E5000806904F6780A454500F0BA8035F9021B0E
:102E6000B4F91039090291FBF3F194F8F43809B27E
:102E7000012BADF8161005D039D3022B04F50060F4
:102E80001DD024E004F50060FDF726FB06AB04F638
:102E9000141B33F9021D029058460193039305F069
:102EA000EFFA019B5846194605F00DFB029AD00730
:102EB00002D43B780A2BCED1C2F3400118E0FDF7D3
:102EC0000BFBC1070DD43B780A2BC4D109E0FDF7F9
:102ED00003FBC2073B7802D40A2BBCD107E00A2BC4
:102EE00005D010F0020F14BF3146002100E031463A
:102EF0002046FFF71FFF3B780A2BACD194F83438FB
:102F0000013B012B0CD8BDF9161004F6E400FFF7C5
:102F1000C9F9B4F8F63813FB00F0ADF8160002E07A
:102F20000023ADF816302046FDF753FE38B9484669
:102F3000FDF7B4FDBDF816301844ADF8160048464C
:102F4000FDF747FE68B994F83438204613B9FDF709
:102F5000A5FD01E0FDF7EAFDBDF816301844ADF817
:102F60001600BDF916105046FFF746FA014604F662
:102F70009C00FFF741FA014604F50C60FFF73CFAAC
:102F8000ADF816002046FDF724FE18B94846FDF7B7
:102F900020FE98B104F50760FFF71CFA014604F51E
:102FA0000260FDF7B9FCBDF81610084401B204F642
:102FB0002410ADF8161005F063FA4CE704F628006B
:102FC00000F018F8BDF816301844ADF81600E1E727
:102FD00007B0BDE8F08F00BF883300204FF4804277
:102FE00002800022827042600272704701EB810110
:102FF00001807047837810B50246FBB1446842F601
:10300000DF639C4211D9017A0D4BB0F9000033F90E
:1030100011304343DB1303F30F0318B24B1CDBB235
:103020003B2B88BF0023137200E00020631C45F691
:10303000BF518B4288BF0023536010BD184610BD9E
:10304000E8E00008012383700023436003727047A7
:1030500000238370704770B506460624002585F06E
:1030600001052946304602F07FFE2946304602F02F
:103070008BFE013CFA21304602F096FE14F0FF046C
:10308000EDD170BD2DE9F74F002504464FF41671C0
:1030900000F8045B05F0CCFB4FF4FA7104F1180062
:1030A00005F0C6FB4FF4167104F12C0003F0B3FFDA
:1030B0001022294604F13C0009F024FE04F1980B8B
:1030C00004F14C030093E56425656565A565A4F8E6
:1030D0005C5025666566A4F86850E5662567A4F827
:1030E0007450A567E567A4F88050C4F88450C4F80C
:1030F0008850A4F88C50C4F89050C4F8945004F54B
:1031000092795B4623F8025B4B45FBD104F5BA7814
:103110004B46002223F8022B4345FBD104F5D87718
:103120004346002223F8022BBB42FBD104F5237651
:103130003B46002223F8022BB342FBD104F5417237
:103140003346002123F8021B93424FF00005F9D1CA
:103150004FF48043A4F80633A4F80833A4F80A33E4
:10316000A4F80C33A4F80E33A4F81033A4F81233E7
:10317000A4F81433A4F816334FF40063A4F81833FA
:10318000A4F81A33012384F82433294684F804531D
:1031900084F81C53C4F8205384F82553A4F826530C
:1031A000A4F82853C4F82C5384F830538C22584682
:1031B000019309F0A7FD29465022484609F0A2FDD7
:1031C00029463C22404609F09DFD2946DC2238462E
:1031D00009F098FD29467822304609F093FD102227
:1031E0002946009809F08EFD019BE363009B236450
:1031F000194B63642A23A4F85C30184B63660C23D4
:10320000A4F86830164B23670623A4F87430154BD6
:10321000E3675223A4F88030134BC4F8883020238E
:10322000A4F88C30114BC4F89430204684F84850F0
:10323000C4F860B0C4F86C90C4F87880C4F88470A6
:10324000C4F8906002F02CFC2046FFF704FF2046F3
:1032500003B0BDE8F08F00BF680100208C010020A2
:103260006A0000208001002082000020260100204A
:103270002DE9F04799460378089E04460D4690468E
:10328000002B51D090F83033002B4DD1274B1A78BA
:1032900032B990F80413012251401A7002F06CFD0B
:1032A000691E09291BD8DFE801F005080B0E11146F
:1032B0001A1A1A17B4F90A5313E0B4F90C5310E0B0
:1032C000B4F90E530DE0B4F910530AE0B4F91253F7
:1032D00007E0B4F9145304E0B4F9165301E0B4F96B
:1032E00008534FF0000A04F11807D1451CD038F9F3
:1032F0001A10B4F81A336943C91301F30F011944C2
:1033000089B2B1F5805F22BFB4F828330133A4F845
:1033100028330EB9324601E016F80A20384605F087
:10332000DCFA0AF1010AE0E7BDE8F0870865002051
:10333000183005F090BA000038B5054B1A788A426B
:103340000D461C4601D002F01FFD257038BD00BFA0
:103350008933002080F8251370470000024B1A784B
:103360008A4218BF197070478833002038B5057835
:1033700004464DB902F028FC01232370294620465B
:10338000BDE83840FFF7EABF38BD0000F0B5D0F81F
:103390002033027801338DB00446C0F820336AB37D
:1033A000D0F82C234BF67F339A4214D9A64B1B78C6
:1033B0005A1E052A0CD8022B06D1A44B1B781BB130
:1033C0000021A34806F098FB00212046FFF7C6FF26
:1033D0000023C4F82C33D4F8202345F6BF539A4277
:1033E0001BD994F82413002381F00101C4F8203381
:1033F00084F82413204602F0B7FC0EE095498B4276
:1034000040F2B38190F82413C0F8202381F0010129
:1034100080F8241302F0A8FCA7E194F81C3323B130
:10342000204602F095FC84F8300304F1180005F002
:1034300034FA20B9854B1A78002A40F08F81271D75
:10344000384605F02AFA012840F28F81002502ABA8
:103450005A190AA9384605F067FA04AB03EB45018F
:1034600004F12C0003F04AFE94F825335BB1BDF85B
:1034700028301BB140F6FF72934204D1B4F82633D2
:103480000133A4F82633B4F81823BDF828309B1A6A
:10349000B4F906231BB203AE5343DB1303F30F034C
:1034A00026F815300135022DD1D194F83033002B98
:1034B00040F05B812A4608A9304608F021FE2B46E1
:1034C0000AAA08A904F13C0009F0A2F90A9A0B9B88
:1034D0001344BDF80C2093FBF5F31B1403F30F0307
:1034E0009BB2D21AADF81420BDF80E20D31AADF855
:1034F0001630554B1B78002B67D1574B1B7863B1A7
:103500002B4607AA05A904F1680009F025F82B4607
:1035100004AA07A9514804F0B1FE514B1B7863B1CE
:10352000022307AA05A904F1740009F015F8022383
:1035300004AA07A94B4802F053FA4B4B1B789BB1E6
:10354000022306AA05A904F1800009F005F8022368
:1035500007AA06A904F18C0008F0FEFF022304AAC2
:1035600007A9424801F04CFC414B424F1A781D46D6
:103570000AB93B78FBB1022307AA314604F15C008B
:1035800008F0EAFF3B782BB1022304AA07A93A48C6
:1035900003F0EEFC2B7873B1384B1B782BB1022271
:1035A00007A9374800F00CFF05E0022304AA07A989
:1035B000344804F061F9344B1B78002B00F0D580BF
:1035C000204602F0C5FB0223ABE0012B12D1224BB7
:1035D0001B78002B00F0C9802B4607AA05A904F12F
:1035E000680008F0B9FF2B4604AA07A91B4804F09D
:1035F00045FEBAE0022B4BD11D4B1B78002B00F08F
:10360000B4802B4607AA314604F15C0008F0A4FF01
:103610001A4B1B7883B10D4B1B783BB1009502AB65
:1036200004AA07A9194804F081FE9EE02A4607A9CA
:10363000134800F0C5FE98E02B4604AA07A91148DC
:1036400004F01AF991E000BF8833002008650020DB
:103650008C3300207FA903005D020020A0610020C0
:103660005E020020483F00205A020020B8A000203F
:103670005C0200205B02002040680020580200200D
:10368000F8390020C07B0020590200208013002060
:10369000032B11D1364B1B78002B66D02B4607AA83
:1036A00005A904F15C0008F057FF2B4604AA07A9FE
:1036B000304803F05DFC58E0042B11D12E4B1B78F1
:1036C000002B52D02B4607AA05A904F1740008F07C
:1036D00043FF2B4604AA07A9284802F081F944E0D9
:1036E000052B18D1264B1B78002B3ED02B4606AA63
:1036F00005A904F1800008F02FFF2B4607AA06A9B0
:1037000004F18C0008F028FF2B4604AA07A91D48E5
:1037100001F076FB29E00A2B09D1204602F018FBC4
:103720002B46014605AA1848FFF77EFB1DE0632BD8
:103730000CD107AA314604F16800022308F00CFFFF
:10374000022207A9114801F02DF80EE0602B0CD1E0
:10375000022204A90E4805F007FB06E0187094F851
:103760000413204602F008FB69E60DB0F0BD00BF6F
:103770005B020020406800205E020020483F0020DD
:103780005A020020B8A0002080920020807B0020F8
:103790007C3300202DE9F0419DF8388080F8043317
:1037A0004FEAC818A0F81683BDF940809DF81C3078
:1037B0009DF818C09DF820E09DF824709DF82860C1
:1037C0009DF82C509DF8304008F50068DB01A0F80A
:1037D0001883BDF93C80A0F808339DF8343008F513
:1037E00000684FEACC1C4FEACE1EFF01F601ED0146
:1037F000E401DB01A0F81A839DF84480A0F806C319
:10380000A0F80AE3A0F80C73A0F80E63A0F8105318
:10381000A0F81243A0F8143380F81C8319B1CCF13E
:10382000000CA0F806C392B1CEF1000E7F427642A2
:103830006D4264425B42A0F80AE3A0F80C73A0F862
:103840000E63A0F81053A0F81243A0F81433BDE89B
:10385000F081B0F82633003318BF01230B70B0F8A5
:103860002833003318BF012313700023A0F8263338
:10387000A0F828337047183005F07CB8043005F004
:1038800079B80023C0F82C337047D0F82C03704768
:1038900090F830037047000038B54FF47A61044661
:1038A00004F11C0502F0FAFB002222616261A261B0
:1038B00004F13C012B4623F8022B8B42FBD104F28E
:1038C000EC42002003F8010B9A424FF00001F9D1BD
:1038D000F023A4F8F0344FF49653C4F8F434A4F869
:1038E000EC14A4F8EE1484F8F214C4F8F8142022AE
:1038F000284609F007FA0523237409236382024B43
:103900006361A561204638BDE0010020792A70B5C9
:1039100006460C460ED102F0D3FB77280CD904F1F1
:10392000780514F8011F304602F00CFCAC42F8D1C7
:10393000002070BD042070BD052070BD2DE9F0434E
:10394000DFF888C0DFF888E0DFF88880DFF888904B
:103950008FB0002340F2772640F2657701F0C00572
:10396000802D90F8F22402AC0DD0C02D05D085B981
:10397000002A14BF42464A460FE0002A14BF4FF403
:103980006D723A4609E0002A14BF4FF49E72324627
:1039900003E0002A14BF7246624624F81320013364
:1039A0008900042BC9B2D9D104AA2146103008F0ED
:1039B000D7FB0023009304AA142303210248FFF736
:1039C00057FC0FB0BDE8F0830C6500209BF8FFFFAB
:1039D0004CFCFFFFC4FEFFFF89FDFFFF10B58EB05A
:1039E000002404AA02A9042310300294039408F0CE
:1039F000B7FB0094142304AA03210248FFF738FC04
:103A00000EB010BD0C650020B0F8EC3470B5044663
:103A10002BB13648364EFFF78BFC054613E002F01B
:103A200071FB60B1334B1B78002B4DD1B4F8F054CF
:103A300077219AB295423DD80023A4F8EE34B4F829
:103A4000EC340BB3E5E7142D4FD9B4F8EE345A1C1F
:103A50002344A4F8EE2493F83C102046FFF76EFFB1
:103A60003378143DADB21BB1D4F8F434C4F8F83453
:103A7000B4F8EE24B4F8EC349A42E4D30023A4F86A
:103A8000EE34A4F8EC3470BDD4F8F8346BB31748B6
:103A9000FFF74EFC0546142D27D92046FFF79EFF61
:103AA000D4F8F834143D013BADB2C4F8F834002B1F
:103AB000F1D170BDB4F8EC24501C2244A4F8EC04FD
:103AC000013382F83C10B4E77825204602F060FB11
:103AD000B4F8EC34013D5A1C234415F0FF05A4F85A
:103AE000EC2483F83C00F0D1A6E770BD0C65002003
:103AF000580200200865002001EB4101890001F512
:103B0000167189B2B1F5966F8ABF4FF49663A0F82B
:103B1000F014A0F8F034704708B502F0D1FA782319
:103B2000B0FBF3F0C0B208BD4FF496635A4380F87F
:103B3000F214C0F8F424704738B54FF4B971044654
:103B400004F11C0502F0AAFA002222616261A2615E
:103B500004F144012B4623F8022B8B42FBD104F5E0
:103B60002772002003F8010B9A424FF00001F9D1AF
:103B70003C23A4F8A032A4F89C12A4F89E12282298
:103B8000284609F0BFF80523237403236382024B00
:103B90006361A561204638BD3A020020292A70B52C
:103BA00006460C4619D102F08BFA292806D802B233
:103BB0000B490C48FDF76EFF052070BD0021304613
:103BC00002F0C0FA651E283415F8011F304602F0D5
:103BD000B9FAA542F8D1002070BD042070BD00BF25
:103BE00088E60008283000200C2A70B506460C46EE
:103BF00019D102F065FA0C2806D802B20B490C481C
:103C0000FDF748FF052070BD0121304602F09AFA09
:103C1000651E0B3415F8011F304602F093FAA542D9
:103C2000F8D1002070BD042070BD00BFA8E60008D8
:103C30002830002010B5044602F042FA024628B9A6
:103C400005490648FDF726FF052010BD0221204644
:103C500002F078FA002010BDC6E6000828300020E7
:103C60002DE9F04F002397B0184601ACD0541855F9
:103C70000133532BF9D10020DFF8C0E101390446AC
:103C800005464FF0010C11F8018F234606462C46DD
:103C900000270CFA07F518EA050F14BF01250025C7
:103CA00003EB050923442B44DB0709F001090CD57C
:103CB00006F007031EF803B016AB03EBD60313F8A8
:103CC00054AC4BEA0A0A03F854ACB9F1000F0ED019
:103CD000731C0DF1580909EBD30903F007031EF813
:103CE00003A019F8543C4AEA030309F8543C01378D
:103CF000082F06F10206234601D02C46C9E71030F2
:103D0000B0F5287FBFD14B4F00213846012407EB87
:103D100041030733B1F5257F7ED216AD05EBD10502
:103D200015F8545C2E060BD513F8066C13F807CC67
:103D300004FA06FE12F80C604EEA060602F80C6061
:103D40006E060BD513F8046C13F805CC04FA06FEC6
:103D500012F80C604EEA060602F80C60AE060BD5AF
:103D600013F8026C13F803CC04FA06FE12F80C6088
:103D70004EEA060602F80C60EE060AD51E7813F825
:103D800001CC04FA06FE12F80C604EEA060602F8B0
:103D90000C600E1DB6F5257F03F1080301D33146F3
:103DA000B8E72B070BD510F816E000EB4606737842
:103DB00004FA03F612F80E30334302F80E306B07A4
:103DC0000CD54B1D10F813E000EB43035B7804FAAD
:103DD00003F612F80E30334302F80E30AE070CD55E
:103DE0008B1D10F813E000EB43035B7804FA03F635
:103DF00012F80E30334302F80E30EB070AD5CB1D14
:103E000010F8136000EB43035B7804FA03F5935D4D
:103E10002B43935508317AE7074C013A002312F8F7
:103E2000010F195D01334140532B1170F7D117B0C9
:103E3000BDE8F08F60E10008F7E60008E3E600085F
:103E400070B500239AB00C46012240F249354FF676
:103E5000B74632EA040102A94FEA42020CBF21F838
:103E6000136021F813500133082BD2B2F1D106AA06
:103E7000103008F075F90023009306AA28230121C9
:103E80000248FFF7F5F91AB070BD00BF0C650020BD
:103E900070B5A2B0044602F035F920B9B4F89C32EE
:103EA000002B00F09E80204602F06DF9B4F89C5281
:103EB00000283BD1002D3CD14B4B1B787BB9B4F88B
:103EC000A052AA219AB2AA424BD2B4F89C22501C0A
:103ED0002244A4F89C02013382F84410F2E7204601
:103EE00002F056F9204602F053F901A94855013570
:103EF000292DF7D10DF132022046FFF7B1FEEA235A
:103F00008DF83030B4F89C22A6238DF83130002390
:103F10000CA8D118185C14FA81F10133552B81F8E3
:103F20004400F5D15532A4F89C221AE001281CD196
:103F300025B12E48FFF7FCF9054638E0204602F08F
:103F400027F90C25B4F89C62731CA4F89C32204617
:103F500002F01EF92644013D15F0FF0586F84400E5
:103F6000F0D10023A4F89E321DE002281BD1002DC1
:103F7000DFD1204602F00CF9B4F89C321C4D03F15D
:103F8000120189B200229818565D14FA80F00132AD
:103F9000062A80F84460F6D106339BB29942F1D1EB
:103FA000A4F89C12DDE7B4F89C32D3B1C1E7282D08
:103FB00017D9B4F89E325A1C2344A4F89E2293F8D1
:103FC00044102046FFF73CFFB4F89E22B4F89C3220
:103FD000283D9A42ADB2EAD30023A4F89E32A4F859
:103FE0009C3222B070BD00BF086500200C65002027
:103FF000EBE6000801EB4101490001F5967189B239
:10400000B1F5167F8ABF4FF41673A0F8A012A0F87E
:10401000A032704708B502F053F80D23B0FBF3F05F
:10402000C0B208BD30B5034600F11402002143F8C8
:10403000041B9342FBD100F23C54002523F8025BA1
:104040009C424FF00002F9D142F20F73A0F83C25D8
:10405000A0F83E25A0F84035C0F84425A0F8482532
:10406000A0F84A2580F84C2530BD0023A0F83E3545
:10407000A0F83C35C0F84435A0F84A35A0F84835DA
:1040800042F20F73A0F84035704700002DE9F04769
:10409000BDF82060BDF928C0BDF9248006EB4202BE
:1040A000B51C741C0232344EADB2A4B292B2CCF143
:1040B0000009A5F1020EAA421FFA8EFE59D000EBAC
:1040C0004107B7F814A0C8EB0A0A0FFA8AFACA45E2
:1040D0004FEAEE070EF0070E0FDA16F80EA013F8EF
:1040E00007E02EEA0A0E03F807E004F0070EE710D7
:1040F00016F80EA013F807E027E0BAF1000F0FDA68
:1041000016F80EA013F807E02EEA0A0E03F807E0EF
:1041100004F0070EE71016F80EA013F807E011E000
:10412000E24516F80EA013F807E04AEA0E0E03F86F
:1041300007E004F0070E4FEAE40716F80EA013F8A4
:1041400007E002DA2EEA0A0E01E04AEA0E0E03F850
:1041500007E001F1050E1FFA8EF7B7F5257F24BFA2
:10416000A1F28F27BFB202350234ADB2A4B23946F4
:104170009FE7BDE8F08700BF8CE700082DE9F04F0E
:10418000B0F83C2550F8223000294FEA4303B8BF6D
:1041900043F0010340F82230B0F83E3500EB430312
:1041A0000446998250F822307E4823F07F4391B034
:1041B000584000F00FFF022800F29B80B4F83E65E3
:1041C000794FDFF8F4C106F2212189B2B1F5257FDC
:1041D00028BFA6F173024FF0000E2CBF92B20A4620
:1041E0004FF47A50754604EB42031EF90C80B3F984
:1041F00014309F42B8BF1F469842A8BF1846B8F176
:10420000010F0AD0B8F1030F05D0B8F1FF3F06D077
:1042100003EB430303E003EB4303ED1A00E01D440B
:10422000531D9BB2B3F5257F28BFA2F28F220EF15A
:10423000010E28BF93B2BEF1180F01D01A46D2E783
:10424000D4F844359D4254DDC3195B100FFA83F84E
:10425000FB1A44F63147B1F5257F07FB03F728BF6A
:10426000A6F173014FF0040347F3CF370DF11C0A99
:1042700000934FF0180228BF89B20297CDF804804E
:1042800053462046FFF702FF0026484ADFF82CB1CC
:10429000B1461AF80600B35C0592034016F80B000D
:1042A000584000F091FE01364844072E5FFA80F92D
:1042B000059AEED1B9F1030F1BD83B4642463C4963
:1042C0003C48FDF7FFFEB4F83E35C4F8445503F210
:1042D0000D1292B2B2F5257F24BF6FF4C3729B1802
:1042E000A4F84885A4F84A7534BFA4F84025A4F87A
:1042F0004035B4F83E25B4F8403593423CD1991D81
:1043000089B2B1F5257F28BFA3F28E21B4F94A35D1
:104310000293B4F9483501934FF0080328BF89B2DE
:1043200084220093204607ABFFF7B0FE06A804F0F6
:1043300026FB0DF11B030DF11A020DF11D0106A85C
:1043400004F04AFB94F84C259DF81A309A420CD19F
:104350009DF81B30032B08D1C3238DF81C3007AA0E
:10436000222300211348FCF719FF42F20F73A4F82F
:1043700040350023C4F84435B4F83E3501339BB2D0
:10438000B3F5257F28BF0023A4F83E35B4F83C35AB
:1043900001339BB2042B88BF0023A4F83C3511B035
:1043A000BDE8F08F6E28760080C1FFFF52E700085D
:1043B00060E700082830002094E7000859E700086B
:1043C00070B505460C4601EB4206B44205D034F9FF
:1043D000021B2846FFF7D2FEF7E770BD80F84C15A8
:1043E000704700000148FCF738BE00BF28300020AD
:1043F00010B54348434CFDF779FB4348FEF7C6FF31
:10440000424B1B782BB12378012B02D14048FFF798
:104410003FFD404B1B7863B12378022B09D13E4B03
:104420001B781BB13D4805F0E1FC02E03C48FBF77E
:10443000AFFF3C4B1B782BB12378032B02D13A48BA
:10444000FFF7E2FA394B1B782BB12378042B02D10A
:10445000374801F087FD374B1B782BB12378052BAC
:1044600002D1354804F0CEFB344B1B783BB12378A6
:10447000062B40D03248FCF70FF900283BD1314BD6
:104480001B782BB123780A2B02D12F48FDF7D2FFDE
:104490002378632B02D12D4804F0AEFC23785C3BDB
:1044A000DBB2062B07D84D2222FA03F3DB0702D535
:1044B000274804F03BF923785D2B02D1254804F00E
:1044C0007DF923785B2B02D12348FDF72BFF23785E
:1044D000652B02D12148FCF78DF82378663B052B2C
:1044E00002D81F4803F0EEF9237843B91D48BDE810
:1044F000104004F0EDBD1248FCF71EF9BFE710BDF7
:1045000028300020883300200C6500205D02002048
:10451000DC1000205C020020580200208C330020B8
:1045200064B000205B020020B89B00205E020020E7
:10453000783400205A020020480B00205F0200203F
:104540003C310020590200208092002060B0002001
:1045500034B00020B4A0002009650020460B0020E4
:104560008C6100205807002008B5FFF73BFFFFF7DC
:104570003FFFFCE708B5284803F029FA2748FFF772
:10458000DBFA2748FFF74EFD264803F0C3FE264816
:1045900005F08CF9254802F0D6FD2548FBF77AFE98
:1045A000244802F09FF92448FFF776F9234800F0E9
:1045B00053FD234801F008FC224800F01FF922486F
:1045C00004F05EFA2148FCF735F82148FEF796FA28
:1045D000204800F055F8204804F00AFC1F4803F07A
:1045E0009DFF1F4804F0E6F81E48FDF795FE1E48A3
:1045F00003F05CF91D48FBF7F9FF1D4804F0ACFB24
:104600001C4804F053FD1C48FCF724FB1B48BDE884
:104610000840FEF737BD00BFA0610020DC1000207D
:10462000F8390020801300208C330020C07B00204C
:1046300064B0002040680020B89B0020483F002064
:1046400078340020B8A00020480B00203C31002026
:1046500080920020807B002060B0002034B00020D9
:10466000B4A00020096500208C610020460B0020CA
:104670007C33002058070020283000200C650020E3
:10468000002303600371836000F10C0200F13C0120
:1046900022F8023B8A42FBD14FF0000380F83C3005
:1046A0007047000037B5836890F83C2000294FEA36
:1046B0004303B8BF43F001038360531CDBB2172BE5
:1046C00000EB420280F83C3088BF00239181044611
:1046D00088BF80F83C30806820F07F432D485840E8
:1046E00000F078FC022825D82B4A04F10A0104F1D5
:1046F0003A054FF47A5331F9020F8242B8BF0246AD
:104700008342A8BF03468D42F5D1D11A052911DD98
:1047100000218DF800108DF8022011121A128DF868
:1047200001108DF80320694605221C488DF80430DD
:10473000FCF7B2FEA06820F07F431948584000F013
:1047400049FC022824D8144A04F10A014FF47A5390
:104750003A3431F9020F8242B8BF02468342A8BF01
:1047600003468C42F5D1D11A052911DD80218DF83F
:1047700000108DF8022011121A128DF801108DF818
:1047800003206946052205488DF80430FCF784FEB5
:1047900003B030BD68B4AA0080C1FFFF28300020FC
:1047A000974B5500F8B504460E4600251746ABB2A8
:1047B0009F4222D936F915102379CA0F934209D0A6
:1047C0002368B3F5004F2ABF6FF4CC7003F299133E
:1047D0001B1823602368227103F54C503330B0F569
:1047E000803F01D2206006E0A3F54C43CD3B23601F
:1047F0002046FFF757FF0135D9E7F8BD03460022F1
:1048000030B503F8022B00F1160123F8022B8B427E
:10481000FBD100F61674002523F8025BA3424FF08B
:104820000002F9D142F20F73A0F8162FA0F8182F4A
:10483000A0F81A3FA0F81C3FA0F81E3FA0F8203FA8
:10484000A0F8223FC0F8242FA0F8282F80F82A2FA4
:1048500000F62C7100F64C7421F8022BA1424FF0A7
:104860000003F9D1A0F84C3F00F64E7100F66E74CB
:1048700021F8023B8C424FF00002F9D16323A0F8EB
:104880006E2F80F8703FC0F8742FA0F8782F30BDDD
:104890006322002380F8702F42F20F720370A0F899
:1048A000183FA0F8163FC0F8243FA0F81A2FA0F830
:1048B0001C2FA0F81E2FA0F8202FA0F8222FA0F860
:1048C0004C3FA0F86E3FA0F8283F80F82A3FC0F880
:1048D000743FA0F8783F7047394BF7B54FF47A56DC
:1048E00004464FF0000E30461F461FFA8EF5AA42CE
:1048F0001FD904EB4105B5F91650002D06DDAF4276
:10490000B8BF2F46A842A8BF284605E0AE42A8BFC0
:104910002E46AB42B8BF2B4601F10A05ADB2B5F544
:10492000F06F24BFA1F276718DB20EF1010E29460F
:10493000DBE73A18334452105B10D5186D102EB2D5
:10494000551B2DB21BB21F491F480195009612B28C
:10495000FDF73AFC94F8703F632B04F62A7104F6D5
:104960004A7009D10B4623F8026F98425D84FAD150
:10497000002384F8703F0BE004EB43020133DBB209
:104980000F2BA2F82C6FA2F84E5F84F8703FEFD87F
:104990000023A4F84C3FA4F86E3F1A4631F8025F9A
:1049A0002A444D8C88422B4412B21BB2F6D112110C
:1049B0001B11A4F84C2FA4F86E3F03B0F0BD00BF4C
:1049C00080C1FFFFB9E70008283000202DE9F04F33
:1049D000BDF82440BDF92C80BDF92890334D04F179
:1049E000020E01341FFA8EFEA4B24FF0000CC8F183
:1049F000000A1FFA8CF7AEF10206BA42B6B252D9DB
:104A000000EB4107B7F816B0C9EB0B0B0FFA8BFBA5
:104A1000D3454FEAE60706F007060CDA15F806B0AC
:104A2000DE5D26EA0B06DE5504F00707E61015F8F2
:104A300007B09F5D21E0BBF1000F0CDA15F806B05E
:104A4000DE5D26EA0B06DE5504F00707E61015F8D2
:104A500007B09F5D0EE0C34515F806B0DE5D4BEA7A
:104A60000606DE5504F007074FEAE40615F807B01E
:104A70009F5D02DA27EA0B0701E04BEA07079F5523
:104A800001F10A07BEB2B6F5F06F24BFA1F2767647
:104A9000B6B20EF1020E02340CF1010C1FFA8EFEBA
:104AA000A4B23146A5E7BDE8F08F00BF27E80008B3
:104AB000B0F8163F00EB43032DE9F04F0446588849
:104AC000C0F3090080F4A67089B080F0010000F006
:104AD00081FA022800F2A480B4F8186F5248DFF877
:104AE00050C106F22677BFB2B7F5F06F28BFA6F126
:104AF0005A024FF0000E2CBF92B23A4675464FF460
:104B00007A5104EB42031EF90C80B3F91630984237
:104B1000B8BF18469942A8BF1946B8F1010F0AD08C
:104B2000B8F1030F05D0B8F1FF3F06D003EB430304
:104B300003E003EB4303ED1A00E01D4402F10A0316
:104B40009BB2B3F5F06F28BFA2F276720EF1010EA0
:104B500028BF93B2BEF10A0F01D01A46D1E7D4F8AC
:104B6000243FAB425CDA94F8703F632B0AD10B18F8
:104B70005B10A4F84C3FC31A44F63E104343DB13CA
:104B8000A4F86E3FB7F5F06F28BFA6F15A07B4F945
:104B90006E3F029328BFBFB2B4F94C3F0193002689
:104BA0000DF11C094B460A22009639462046FFF7B4
:104BB0000DFF23781D4ADFF87CB0B3420CBF4FF0E5
:104BC000010A4FF0030AB04619F80600B35C0592DB
:104BD000034016F80B00584000F0F6F90136404447
:104BE000032E5FFA80F8059AEED1D04518D8062337
:104BF000A4F8283FB4F8183FA4F81E3F03F21B7234
:104C000092B2B2F5F06F28BF653BC4F8245FA4F8F8
:104C10001A7F34BFA4F81C2FA4F81C3F012000E029
:104C2000002009B0BDE8F08F80C1FFFFB6E70008A3
:104C3000ACE7000824E8000810B50446FFF738FF89
:104C4000A0B194F82A3F8BB9C4F8743FA4F8783F18
:104C500001211B48FEF770FB01211948FEF77AFB82
:104C6000632384F8703F052384F82A3F94F82A3F91
:104C700013B1013B84F82A3F94F82A3F012B1ED13F
:104C8000B4F81E3F03F27F7292B2B2F5F06F28BF04
:104C900003F1FF32A4F8202F5A1C92B2B2F5F06F44
:104CA00024BFA3F27F73A4F8223F4FF001032370C7
:104CB0004FF0000338BFA4F8222F84F82A3F10BD1C
:104CC0000C65002010B5312204460448FCF792FB25
:104CD0000023C4F8743FA4F8783F10BD28300020AA
:104CE00030B5B0F8201FB0F8222FB0F8183F91422D
:104CF00093B0044607D2994208D89A4206D3204678
:104D0000FFF7D6FE02E09942F7D8F8E7B4F8182F7B
:104D1000B4F81C3F9A4269D1B4F8283F062B16D14B
:104D2000B4F81E3F03F27F7292B2B2F5F06F28BF63
:104D300003F1FF32A4F8202F5A1C92B2B2F5F06FA3
:104D40002ABFA3F27F73A4F8222FA4F8223FC02227
:104D5000B4F81A1F2046FFF7BFFDB4F96E1FB4F96F
:104D60004C3FB4F91E2F009121482249FDF7E3F989
:104D7000B4F96E3F0293B4F94C3F019308230093BA
:104D8000B4F81A1F05ABC0222046FFF71FFEB4F887
:104D9000285F013DADB2A4F8285FDDB9164914487B
:104DA000FCF7D2FB29461548FEF7C6FA29461348F8
:104DB000FEF7D0FA0E48FCF74FFB42F20F73A4F84F
:104DC0001C3F6323257084F8703F84F82A5FC4F881
:104DD000245F0BE06B1F5D425D4105A920468DF805
:104DE0001450FFF76FFF0023C4F8243F13B030BD09
:104DF00028300020DAE7000802E800080C650020EF
:104E00002DE9F8434FF0000904460F4690461E4630
:104E10004D464E4540D038F81930D4F8742F37F944
:104E200019101344C4F8743FB4F8162FB4F8783F3F
:104E300004EB42020133A4F8783F53885B009BB235
:104E40000029B8BF43F001035380B4F8183F04EBC6
:104E500043032046D9822378012B02D1FFF740FF7C
:104E600001E0FFF7E9FEB4F8183F01339BB2B3F558
:104E7000F06F38BFA4F8183FB4F8163F28BFA4F865
:104E8000185F01339BB2092B94BFA4F8163FA4F816
:104E9000165F09F10109BCE7BDE8F88310B50023EE
:104EA000038104464381018003734373084607F07E
:104EB000E5FD6060204610BD4289038992B29BB235
:104EC0009A42028803D1037B93B9104612E04189CC
:104ED000038989B29BB2994239BF038940894389CA
:104EE00000893ABF12FA80F0C01A181A80B201E0A5
:104EF00000207047824238BF0020704742890389F2
:104F000092B29BB29A4205D1027B02F0FF039AB1A2
:104F1000008870474289038992B29BB29A4223BFAC
:104F2000428903890088038935BF408910FA83F0DC
:104F3000181A801A80B2704718467047037B10B564
:104F400003F0FF021BB101234373002010BD03894E
:104F500044689BB2E1540389018801339BB2038109
:104F600003899BB2994298BF02810289438992B218
:104F70009BB29A424FF0010308BF0373184610BD5D
:104F8000034600895A8980B292B2904204D11A7BBA
:104F900002F0FF0002B970475A89586892B2825CE9
:104FA0000A70002119735A891888013292B25A8105
:104FB0005A8992B2904200D8598101207047034625
:104FC0000022407B5A737047014B185C704700BF4A
:104FD0002FE80008094AC1B2C0F30723515CD35C33
:104FE0000B44C0F30741000E515C105C51FA83F38F
:104FF00050FA83F0C0B282B002B070472FE80008C8
:1050000082B0144ACDE90001C0F30723C1B2D35CDA
:10501000515C0B44C0F30741000E515C105C51FA27
:1050200083F39DF8041050FA83F3505C9DF805104B
:1050300050FA83F3505C9DF8061050FA83F3505CED
:105040009DF8071050FA83F3505C50FA83F0C0B219
:1050500002B070472FE800080346002230B503F87D
:10506000042B00F1180143F8042B8B42FBD100F50F
:1050700007511831002523F8025B8B424FF00002E4
:10508000F9D142F2D81342F2DC11C25242F2DA13E1
:1050900000F50854C25242F20F73435242F2DE113D
:1050A0001434435242F2E011435242F2E2114352AD
:1050B00042F2E411435242F2E611435242F2E81145
:1050C000435242F2EC13C25042F2F013C25242F287
:1050D000F213C25400F50753343323F8022BA342D2
:1050E0004FF00001F9D142F2142300F50854C152E7
:1050F00000F508531633363423F8021B9C424FF058
:105100000002F9D142F236236321C25242F238231F
:10511000C15442F23C23C25000F509531A8042F2B6
:105120004223C25430BD42F2DA120023037083528C
:1051300042F2D8126321835242F2EC12835042F2BF
:105140003822815442F2DC1142F20F72425242F292
:10515000DE11425242F2E011425242F2E611425254
:1051600042F2E811425242F2E211425242F2E4119A
:10517000425242F21422835242F23622835242F2C7
:10518000F012835242F2F212835442F23C228350D4
:1051900000F50952138042F2422283547047000006
:1051A0003F4BF7B54FF47A5604464FF0000E3046A9
:1051B0001F461FFA8EF5AA421FD901F10C0534F9DA
:1051C0001550002D06DDAF42B8BF2F46A842A8BF3C
:1051D000284605E0AE42A8BF2E46AB42B8BF2B46DC
:1051E0004D1DADB2B5F5875F22BFA1F586511B39C4
:1051F0008DB20EF1010E2946DBE73A183344521006
:105200005B10D5186D102EB2551B2DB21BB212B209
:105210002449254801950096FCF7D6FF42F2382133
:1052200004F50752635C04F50850632B02F1320267
:1052300000F112000AD1134623F8026F98425D84F0
:10524000FAD142F238230021E1540DE004EB430788
:1052500042F2F41E013327F80E60DBB242F216264A
:105260000F2BBD536354ECD842F214210023635238
:1052700042F236216352194632F8025F2944558CB6
:1052800090422B4409B21BB2F6D142F2142209110A
:10529000A15242F236221B11A35203B0F0BD00BF4F
:1052A00080C1FFFF4DE90008283000202DE9F04FB4
:1052B000BDF82440BDF92C80BDF92890334F04F18E
:1052C000020E01341FFA8EFEA4B24FF0000CC8F19A
:1052D000000A1FFA8CF6AEF10205B242ADB252D905
:1052E00001F10C0630F816B0C9EB0B0B0FFA8BFB73
:1052F000D3454FEAE50605F007050CDA17F805B0C7
:105300009D5D25EA0B059D5504F00706E51017F88D
:1053100006B05E5D21E0BBF1000F0CDA17F805B0B6
:105320009D5D25EA0B059D5504F00706E51017F86D
:1053300006B05E5D0EE0C34517F805B09D5D4BEA13
:1053400005059D5504F007064FEAE40517F806B079
:105350005E5D02DA26EA0B0601E04BEA06065E55C0
:105360004E1DB5B2B5F5875F22BFA1F586551B3D31
:10537000ADB20EF1020E02340CF1010C1FFA8EFEDA
:10538000A4B22946A5E7BDE8F08F00BFA5EA000852
:1053900042F2D8132DE9F04FC35A00EB83030446C1
:1053A0005B686B4823F07F4387B05840FFF712FEDD
:1053B000022800F2C98042F2DA134FF0000EE75AD9
:1053C0006448DFF894C107F583550D35ADB2B5F5E6
:1053D000875F26BFA7F1730292B22A4676464FF442
:1053E0007A5102F10C031EF90C8034F91330984203
:1053F000B8BF18469942A8BF1946B8F1010F0AD0A4
:10540000B8F1030F05D0B8F1FF3F06D003EB43031B
:1054100003E003EB4303F61A00E01E44531D9BB266
:10542000B3F5875F24BFA2F586521B3A0EF1010E39
:1054300028BF93B2BEF1180F01D01A46D1E742F24D
:10544000EC13E358B3427FDA42F23823E35C632B78
:105450000CD1014442F214234910E152411A44F69E
:105460003E10414342F23623C913E15242F2362341
:10547000B5F5875FE35E029342F2142324BFA7F1E0
:105480007305ADB2E35E019300270DF110094B46A1
:105490000097182229462046FFF708FF2378DFF8F7
:1054A000BCB0BB420CBF4FF0020A4FF0040AB84632
:1054B00019F8070017F80B305840FFF785FD013742
:1054C0004044062F5FFA80F8F2D1D0453CD842F232
:1054D000EC130522E65042F2F01342F2E011E252E0
:1054E00042F2DA1342F2E812E35AA35242F2DE1217
:1054F000A55203F58352073292B2B2F5875F28BFF7
:10550000A3F1790262522278E2B942F2E61242F243
:10551000E211A35242F2DC12A55203F2BB7292B224
:10552000B2F5875F28BFA3F62512625203F2BD725F
:1055300092B2B2F5875F42F2E4112ABFA3F62313B9
:1055400062526352012000E0002007B0BDE8F08FF6
:10555000A030FB0080C1FFFF2FE9000847E90008E9
:1055600038B50446FFF714FFB8B142F2F215635D97
:105570009BB942F23C220121A35004F509521D4877
:105580001380FDF7D9FE01211A48FDF7E3FE42F230
:1055900038236322E2540A23635542F2F213E25C99
:1055A0000AB1013AE254E35C012B21D142F2E61345
:1055B00042F2E211E35A03F2BB7292B2B2F5875F94
:1055C00028BFA3F62512625203F2BD7292B2B2F561
:1055D000875F42F2E41124BFA3F6231363524FF016
:1055E000010338BF6252237042F2F2130022E254E8
:1055F00038BD00BF0C65002042F2DC13F0B5C35A81
:1056000003F1780189B2B1F5875F28BFA3F5835113
:1056100042F236239FB0C35E029342F2142328BFA6
:105620000839C35E01934FF0000300934FF0080266
:1056300004AB28BF89B20446FFF738FE9DF811304D
:1056400042F2422203F00F0383540F2B00F2BA8080
:10565000DFE803F008B8B86BB8B8B846B8B8B8B85F
:105660002FB8B89042F2DC174FF4C672C15B42F219
:105670003626FFF795FD42F2142542F2E612A15FAD
:10568000635FA25E009162486249FCF754FDA35F2C
:105690000293635F0193082300934FF4C67205AB36
:1056A000E15B2046FFF702FE01238DF814306422EF
:1056B00084E042F2E61542F23627415BB42242F220
:1056C0001426FFF76DFDE15FA35F0091625F524911
:1056D0004F48FCF730FDE35F0293615BA35F17E087
:1056E00042F2DC17B422C15B42F23626FFF758FDC6
:1056F00042F2142542F2E612A15F635F0091A25EBE
:1057000046494348FCF717FDA35F0293E15B635FE3
:10571000019308230093B42205AB2046FFF7C6FD92
:1057200001238DF814302E2248E042F2DC17482283
:10573000C15B42F23626FFF733FD42F2142542F2F6
:10574000E612A15F635FA25E009131483449FCF725
:10575000F2FCA35F0293635F019308230093482246
:1057600005ABE15B2046FFF7A1FD01238DF8143066
:10577000132223E042F2DC17D822C15B42F2362624
:10578000FFF70EFD42F2142542F2E612A15F635FBD
:10579000A25E00911E482349FCF7CDFCA35F029353
:1057A000635F019308230093D82205ABE15B204699
:1057B000FFF77CFD01238DF81430372205A914482A
:1057C000FBF796FD42F2E81342F2E211E35A03F5C9
:1057D00086521F3292B2B2F5875F28BF03F1FF32C3
:1057E00062525A1C92B2B2F5875F28BFA3F5865366
:1057F00042F2E41124BF1F3B63524FF0020338BF53
:105800006252237042F2EC130022E2501FB0F0BD4E
:10581000283000206DE900089BE90008C9E900086C
:10582000F8E9000826EA000842F2E21342F2DA112F
:10583000C25A415A42F2E41310B5C35A9A4204467E
:1058400007D28A4208D88B4206D32046FFF7A0FD34
:1058500002E08A42F7D8F8E742F2DA13E25A42F25B
:10586000E413E35A9A4204D12046BDE81040FFF702
:10587000C3BE10BD10B5D92204460548FBF76AFD2A
:1058800042F23C220023A35004F50954238010BDAA
:105890002830002042F2E213F0B5C25A42F2E4137B
:1058A00042F2DA11C35A415A9A42BDB0044607D2B5
:1058B0008A4208D88B4206D32046FFF769FD02E0F2
:1058C0008A42F7D8F8E742F2DA13E25A42F2E013DA
:1058D000E35A9A4279D142F2F013E35A052B1AD1D6
:1058E00042F2E81342F2E211E35A03F586521F3204
:1058F00092B2B2F5875F28BF03F1FF3262525A1CA1
:1059000092B2B2F5875F42F2E41125BFA3F5865348
:105910001F3B6252635242F2DE174FF45872E15B52
:10592000204642F23626FFF73BFC42F2142542F2B3
:10593000E812A15F635FA25E009125482549FCF74C
:10594000FAFBA35F0293635F019308230093E15B7B
:1059500005AB4FF458722046FFF7A8FC42F2F01353
:10596000E55A013DADB2E55215BB1B491848FBF79E
:10597000EBFD29461948FDF7DFFC29461748FDF7DE
:10598000E9FC1348FBF718FD42F2E01342F20F72F4
:105990002570E25242F238236322E25442F2F213BB
:1059A000E55442F2EC13E55042F24223E5540CE098
:1059B0002B1F5D425D4105A920468DF81450FFF76D
:1059C00059FF42F2EC130022E2503DB0F0BD00BF9F
:1059D0002830002056EA000884EA00080C65002000
:1059E0002DE9F84F00F5085A00F5075504460F4613
:1059F00090461E464FF000090AF13C0A18354E4504
:105A00004BD038F81920DAF8003037F91910134460
:105A100004F50952CAF800301388013313802A882C
:105A200004EB82020029536804F5075B4FEA430345
:105A3000B8BF43F001030BF11A0B5360BBF8003001
:105A40000C3324F813102378012B05D0022B07D137
:105A50002046FFF71FFF06E02046FFF7E5FE02E0C5
:105A60002046FFF77DFDBBF8003001339BB2B3F554
:105A7000875F21BF04F509530022ABF800209A701C
:105A800038BFABF800302B8801339BB2042B88BFA2
:105A900000232B8009F10109B1E7BDE8F88F000070
:105AA000F7B502241F4E684604F0E2FA00272046AC
:105AB000012101258DF805408DF806708DF807400D
:105AC00004F07CFF4FF480536946304600938DF814
:105AD000045004F08BFA2946204604F06FFF10238F
